{
  "contractName": "Assessments",
  "abi": [
    {
      "anonymous": false,
      "inputs": [
        {
          "indexed": false,
          "internalType": "uint256",
          "name": "id",
          "type": "uint256"
        },
        {
          "indexed": false,
          "internalType": "string",
          "name": "assessType",
          "type": "string"
        },
        {
          "indexed": false,
          "internalType": "string",
          "name": "date",
          "type": "string"
        },
        {
          "indexed": false,
          "internalType": "address",
          "name": "account",
          "type": "address"
        },
        {
          "indexed": false,
          "internalType": "string",
          "name": "document",
          "type": "string"
        },
        {
          "indexed": false,
          "internalType": "string",
          "name": "month",
          "type": "string"
        },
        {
          "indexed": false,
          "internalType": "string",
          "name": "year",
          "type": "string"
        }
      ],
      "name": "EnviroAdded",
      "type": "event"
    },
    {
      "anonymous": false,
      "inputs": [
        {
          "indexed": false,
          "internalType": "uint256",
          "name": "id",
          "type": "uint256"
        },
        {
          "indexed": false,
          "internalType": "string",
          "name": "assessType",
          "type": "string"
        },
        {
          "indexed": false,
          "internalType": "string",
          "name": "date",
          "type": "string"
        },
        {
          "indexed": false,
          "internalType": "address",
          "name": "account",
          "type": "address"
        },
        {
          "indexed": false,
          "internalType": "string",
          "name": "document",
          "type": "string"
        },
        {
          "indexed": false,
          "internalType": "string",
          "name": "month",
          "type": "string"
        },
        {
          "indexed": false,
          "internalType": "string",
          "name": "year",
          "type": "string"
        },
        {
          "indexed": false,
          "internalType": "string",
          "name": "process",
          "type": "string"
        }
      ],
      "name": "LCIAdded",
      "type": "event"
    },
    {
      "anonymous": false,
      "inputs": [
        {
          "indexed": false,
          "internalType": "uint256",
          "name": "id",
          "type": "uint256"
        },
        {
          "indexed": false,
          "internalType": "string",
          "name": "assessType",
          "type": "string"
        },
        {
          "indexed": false,
          "internalType": "string",
          "name": "date",
          "type": "string"
        },
        {
          "indexed": false,
          "internalType": "address",
          "name": "account",
          "type": "address"
        },
        {
          "indexed": false,
          "internalType": "string",
          "name": "document",
          "type": "string"
        },
        {
          "indexed": false,
          "internalType": "string",
          "name": "month",
          "type": "string"
        },
        {
          "indexed": false,
          "internalType": "string",
          "name": "year",
          "type": "string"
        }
      ],
      "name": "SocialAdded",
      "type": "event"
    },
    {
      "inputs": [],
      "name": "LCICount",
      "outputs": [
        {
          "internalType": "uint256",
          "name": "",
          "type": "uint256"
        }
      ],
      "stateMutability": "view",
      "type": "function",
      "constant": true
    },
    {
      "inputs": [
        {
          "internalType": "uint256",
          "name": "",
          "type": "uint256"
        }
      ],
      "name": "LCIs",
      "outputs": [
        {
          "internalType": "uint256",
          "name": "id",
          "type": "uint256"
        },
        {
          "internalType": "string",
          "name": "assessType",
          "type": "string"
        },
        {
          "internalType": "string",
          "name": "date",
          "type": "string"
        },
        {
          "internalType": "address",
          "name": "account",
          "type": "address"
        },
        {
          "internalType": "string",
          "name": "document",
          "type": "string"
        },
        {
          "internalType": "string",
          "name": "month",
          "type": "string"
        },
        {
          "internalType": "string",
          "name": "year",
          "type": "string"
        },
        {
          "internalType": "string",
          "name": "process",
          "type": "string"
        }
      ],
      "stateMutability": "view",
      "type": "function",
      "constant": true
    },
    {
      "inputs": [],
      "name": "assessmentCount",
      "outputs": [
        {
          "internalType": "uint256",
          "name": "",
          "type": "uint256"
        }
      ],
      "stateMutability": "view",
      "type": "function",
      "constant": true
    },
    {
      "inputs": [],
      "name": "enviroCount",
      "outputs": [
        {
          "internalType": "uint256",
          "name": "",
          "type": "uint256"
        }
      ],
      "stateMutability": "view",
      "type": "function",
      "constant": true
    },
    {
      "inputs": [
        {
          "internalType": "uint256",
          "name": "",
          "type": "uint256"
        }
      ],
      "name": "enviros",
      "outputs": [
        {
          "internalType": "uint256",
          "name": "id",
          "type": "uint256"
        },
        {
          "internalType": "string",
          "name": "assessType",
          "type": "string"
        },
        {
          "internalType": "string",
          "name": "date",
          "type": "string"
        },
        {
          "internalType": "address",
          "name": "account",
          "type": "address"
        },
        {
          "internalType": "string",
          "name": "document",
          "type": "string"
        },
        {
          "internalType": "string",
          "name": "month",
          "type": "string"
        },
        {
          "internalType": "string",
          "name": "year",
          "type": "string"
        }
      ],
      "stateMutability": "view",
      "type": "function",
      "constant": true
    },
    {
      "inputs": [],
      "name": "socialCount",
      "outputs": [
        {
          "internalType": "uint256",
          "name": "",
          "type": "uint256"
        }
      ],
      "stateMutability": "view",
      "type": "function",
      "constant": true
    },
    {
      "inputs": [
        {
          "internalType": "uint256",
          "name": "",
          "type": "uint256"
        }
      ],
      "name": "socials",
      "outputs": [
        {
          "internalType": "uint256",
          "name": "id",
          "type": "uint256"
        },
        {
          "internalType": "string",
          "name": "assessType",
          "type": "string"
        },
        {
          "internalType": "string",
          "name": "date",
          "type": "string"
        },
        {
          "internalType": "address",
          "name": "account",
          "type": "address"
        },
        {
          "internalType": "string",
          "name": "document",
          "type": "string"
        },
        {
          "internalType": "string",
          "name": "month",
          "type": "string"
        },
        {
          "internalType": "string",
          "name": "year",
          "type": "string"
        }
      ],
      "stateMutability": "view",
      "type": "function",
      "constant": true
    },
    {
      "inputs": [
        {
          "internalType": "string",
          "name": "_date",
          "type": "string"
        },
        {
          "internalType": "string",
          "name": "_document",
          "type": "string"
        },
        {
          "internalType": "string",
          "name": "_month",
          "type": "string"
        },
        {
          "internalType": "string",
          "name": "_year",
          "type": "string"
        },
        {
          "internalType": "string",
          "name": "_process",
          "type": "string"
        }
      ],
      "name": "addLCI",
      "outputs": [],
      "stateMutability": "nonpayable",
      "type": "function"
    },
    {
      "inputs": [
        {
          "internalType": "string",
          "name": "_date",
          "type": "string"
        },
        {
          "internalType": "string",
          "name": "_document",
          "type": "string"
        },
        {
          "internalType": "string",
          "name": "_month",
          "type": "string"
        },
        {
          "internalType": "string",
          "name": "_year",
          "type": "string"
        }
      ],
      "name": "addEnviro",
      "outputs": [],
      "stateMutability": "nonpayable",
      "type": "function"
    },
    {
      "inputs": [
        {
          "internalType": "string",
          "name": "_date",
          "type": "string"
        },
        {
          "internalType": "string",
          "name": "_document",
          "type": "string"
        },
        {
          "internalType": "string",
          "name": "_month",
          "type": "string"
        },
        {
          "internalType": "string",
          "name": "_year",
          "type": "string"
        }
      ],
      "name": "addSocial",
      "outputs": [],
      "stateMutability": "nonpayable",
      "type": "function"
    }
  ],
  "bytecode": "0x60806040526000805560006001556000600255600060035534801561002357600080fd5b50611df2806100336000396000f3fe608060405234801561001057600080fd5b506004361061009e5760003560e01c80639d91132c116100665780639d91132c14610135578063c91e10131461016c578063ccd6db51146101a2578063d1dc7e00146101be578063db09ef88146101f45761009e565b80634768475a146100a35780636439b230146100bf578063817215e1146100dd5780639628ebc3146100fb57806398ad394d14610117575b600080fd5b6100bd60048036038101906100b89190611358565b610212565b005b6100c761041a565b6040516100d49190611448565b60405180910390f35b6100e5610420565b6040516100f29190611448565b60405180910390f35b61011560048036038101906101109190611463565b610426565b005b61011f61063e565b60405161012c9190611448565b60405180910390f35b61014f600480360381019061014a9190611596565b610644565b604051610163989796959493929190611683565b60405180910390f35b61018660048036038101906101819190611596565b6109dc565b604051610199979695949392919061172b565b60405180910390f35b6101bc60048036038101906101b79190611358565b610ce6565b005b6101d860048036038101906101d39190611596565b610eee565b6040516101eb979695949392919061172b565b60405180910390f35b6101fc6111f8565b6040516102099190611448565b60405180910390f35b600084510361022057600080fd5b600083510361022e57600080fd5b600082510361023c57600080fd5b600081510361024a57600080fd5b6002600081548092919061025d906117ec565b919050555060036000815480929190610275906117ec565b91905055506040518060e0016040528060025481526020016040518060400160405280601181526020017f536f6369616c204173736573736d656e7400000000000000000000000000000081525081526020018581526020013373ffffffffffffffffffffffffffffffffffffffff1681526020018481526020018381526020018281525060066000600254815260200190815260200160002060008201518160000155602082015181600101908161032e9190611a40565b5060408201518160020190816103449190611a40565b5060608201518160030160006101000a81548173ffffffffffffffffffffffffffffffffffffffff021916908373ffffffffffffffffffffffffffffffffffffffff16021790555060808201518160040190816103a19190611a40565b5060a08201518160050190816103b79190611a40565b5060c08201518160060190816103cd9190611a40565b509050507fc4a7bea2a2f53a57d59fc6ae4f4b6f9dd5a2dda1980749c41ec3ae8046f51390600254853386868660405161040c96959493929190611b5e565b60405180910390a150505050565b60005481565b60035481565b600085510361043457600080fd5b600084510361044257600080fd5b600081510361045057600080fd5b600080815480929190610462906117ec565b91905055506003600081548092919061047a906117ec565b919050555060405180610100016040528060005481526020016040518060400160405280601481526020017f4c696665204379636c6520496e76656e746f727900000000000000000000000081525081526020018681526020013373ffffffffffffffffffffffffffffffffffffffff1681526020018581526020018481526020018381526020018281525060046000805481526020019081526020016000206000820151816000015560208201518160010190816105399190611a40565b50604082015181600201908161054f9190611a40565b5060608201518160030160006101000a81548173ffffffffffffffffffffffffffffffffffffffff021916908373ffffffffffffffffffffffffffffffffffffffff16021790555060808201518160040190816105ac9190611a40565b5060a08201518160050190816105c29190611a40565b5060c08201518160060190816105d89190611a40565b5060e08201518160070190816105ee9190611a40565b509050507f3fb89c8f7e7eabd126ebdcb52ddc192c4e2e3ef8438ee81f9c736986b70a030060005486338787878760405161062f9796959493929190611c3a565b60405180910390a15050505050565b60025481565b600460205280600052604060002060009150905080600001549080600101805461066d90611863565b80601f016020809104026020016040519081016040528092919081815260200182805461069990611863565b80156106e65780601f106106bb576101008083540402835291602001916106e6565b820191906000526020600020905b8154815290600101906020018083116106c957829003601f168201915b5050505050908060020180546106fb90611863565b80601f016020809104026020016040519081016040528092919081815260200182805461072790611863565b80156107745780601f1061074957610100808354040283529160200191610774565b820191906000526020600020905b81548152906001019060200180831161075757829003601f168201915b5050505050908060030160009054906101000a900473ffffffffffffffffffffffffffffffffffffffff16908060040180546107af90611863565b80601f01602080910402602001604051908101604052809291908181526020018280546107db90611863565b80156108285780601f106107fd57610100808354040283529160200191610828565b820191906000526020600020905b81548152906001019060200180831161080b57829003601f168201915b50505050509080600501805461083d90611863565b80601f016020809104026020016040519081016040528092919081815260200182805461086990611863565b80156108b65780601f1061088b576101008083540402835291602001916108b6565b820191906000526020600020905b81548152906001019060200180831161089957829003601f168201915b5050505050908060060180546108cb90611863565b80601f01602080910402602001604051908101604052809291908181526020018280546108f790611863565b80156109445780601f1061091957610100808354040283529160200191610944565b820191906000526020600020905b81548152906001019060200180831161092757829003601f168201915b50505050509080600701805461095990611863565b80601f016020809104026020016040519081016040528092919081815260200182805461098590611863565b80156109d25780601f106109a7576101008083540402835291602001916109d2565b820191906000526020600020905b8154815290600101906020018083116109b557829003601f168201915b5050505050905088565b6006602052806000526040600020600091509050806000015490806001018054610a0590611863565b80601f0160208091040260200160405190810160405280929190818152602001828054610a3190611863565b8015610a7e5780601f10610a5357610100808354040283529160200191610a7e565b820191906000526020600020905b815481529060010190602001808311610a6157829003601f168201915b505050505090806002018054610a9390611863565b80601f0160208091040260200160405190810160405280929190818152602001828054610abf90611863565b8015610b0c5780601f10610ae157610100808354040283529160200191610b0c565b820191906000526020600020905b815481529060010190602001808311610aef57829003601f168201915b5050505050908060030160009054906101000a900473ffffffffffffffffffffffffffffffffffffffff1690806004018054610b4790611863565b80601f0160208091040260200160405190810160405280929190818152602001828054610b7390611863565b8015610bc05780601f10610b9557610100808354040283529160200191610bc0565b820191906000526020600020905b815481529060010190602001808311610ba357829003601f168201915b505050505090806005018054610bd590611863565b80601f0160208091040260200160405190810160405280929190818152602001828054610c0190611863565b8015610c4e5780601f10610c2357610100808354040283529160200191610c4e565b820191906000526020600020905b815481529060010190602001808311610c3157829003601f168201915b505050505090806006018054610c6390611863565b80601f0160208091040260200160405190810160405280929190818152602001828054610c8f90611863565b8015610cdc5780601f10610cb157610100808354040283529160200191610cdc565b820191906000526020600020905b815481529060010190602001808311610cbf57829003601f168201915b5050505050905087565b6000845103610cf457600080fd5b6000835103610d0257600080fd5b6000825103610d1057600080fd5b6000815103610d1e57600080fd5b60016000815480929190610d31906117ec565b919050555060036000815480929190610d49906117ec565b91905055506040518060e0016040528060015481526020016040518060400160405280601881526020017f456e7669726f6e6d656e74616c204173736573736d656e74000000000000000081525081526020018581526020013373ffffffffffffffffffffffffffffffffffffffff16815260200184815260200183815260200182815250600560006001548152602001908152602001600020600082015181600001556020820151816001019081610e029190611a40565b506040820151816002019081610e189190611a40565b5060608201518160030160006101000a81548173ffffffffffffffffffffffffffffffffffffffff021916908373ffffffffffffffffffffffffffffffffffffffff1602179055506080820151816004019081610e759190611a40565b5060a0820151816005019081610e8b9190611a40565b5060c0820151816006019081610ea19190611a40565b509050507f3ab634ec38018f6b798f4f90578d1f616d135e8922fe559c7b2a08af46d5553f6001548533868686604051610ee096959493929190611d2c565b60405180910390a150505050565b6005602052806000526040600020600091509050806000015490806001018054610f1790611863565b80601f0160208091040260200160405190810160405280929190818152602001828054610f4390611863565b8015610f905780601f10610f6557610100808354040283529160200191610f90565b820191906000526020600020905b815481529060010190602001808311610f7357829003601f168201915b505050505090806002018054610fa590611863565b80601f0160208091040260200160405190810160405280929190818152602001828054610fd190611863565b801561101e5780601f10610ff35761010080835404028352916020019161101e565b820191906000526020600020905b81548152906001019060200180831161100157829003601f168201915b5050505050908060030160009054906101000a900473ffffffffffffffffffffffffffffffffffffffff169080600401805461105990611863565b80601f016020809104026020016040519081016040528092919081815260200182805461108590611863565b80156110d25780601f106110a7576101008083540402835291602001916110d2565b820191906000526020600020905b8154815290600101906020018083116110b557829003601f168201915b5050505050908060050180546110e790611863565b80601f016020809104026020016040519081016040528092919081815260200182805461111390611863565b80156111605780601f1061113557610100808354040283529160200191611160565b820191906000526020600020905b81548152906001019060200180831161114357829003601f168201915b50505050509080600601805461117590611863565b80601f01602080910402602001604051908101604052809291908181526020018280546111a190611863565b80156111ee5780601f106111c3576101008083540402835291602001916111ee565b820191906000526020600020905b8154815290600101906020018083116111d157829003601f168201915b5050505050905087565b60015481565b6000604051905090565b600080fd5b600080fd5b600080fd5b600080fd5b6000601f19601f8301169050919050565b7f4e487b7100000000000000000000000000000000000000000000000000000000600052604160045260246000fd5b6112658261121c565b810181811067ffffffffffffffff821117156112845761128361122d565b5b80604052505050565b60006112976111fe565b90506112a3828261125c565b919050565b600067ffffffffffffffff8211156112c3576112c261122d565b5b6112cc8261121c565b9050602081019050919050565b82818337600083830152505050565b60006112fb6112f6846112a8565b61128d565b90508281526020810184848401111561131757611316611217565b5b6113228482856112d9565b509392505050565b600082601f83011261133f5761133e611212565b5b813561134f8482602086016112e8565b91505092915050565b6000806000806080858703121561137257611371611208565b5b600085013567ffffffffffffffff8111156113905761138f61120d565b5b61139c8782880161132a565b945050602085013567ffffffffffffffff8111156113bd576113bc61120d565b5b6113c98782880161132a565b935050604085013567ffffffffffffffff8111156113ea576113e961120d565b5b6113f68782880161132a565b925050606085013567ffffffffffffffff8111156114175761141661120d565b5b6114238782880161132a565b91505092959194509250565b6000819050919050565b6114428161142f565b82525050565b600060208201905061145d6000830184611439565b92915050565b600080600080600060a0868803121561147f5761147e611208565b5b600086013567ffffffffffffffff81111561149d5761149c61120d565b5b6114a98882890161132a565b955050602086013567ffffffffffffffff8111156114ca576114c961120d565b5b6114d68882890161132a565b945050604086013567ffffffffffffffff8111156114f7576114f661120d565b5b6115038882890161132a565b935050606086013567ffffffffffffffff8111156115245761152361120d565b5b6115308882890161132a565b925050608086013567ffffffffffffffff8111156115515761155061120d565b5b61155d8882890161132a565b9150509295509295909350565b6115738161142f565b811461157e57600080fd5b50565b6000813590506115908161156a565b92915050565b6000602082840312156115ac576115ab611208565b5b60006115ba84828501611581565b91505092915050565b600081519050919050565b600082825260208201905092915050565b60005b838110156115fd5780820151818401526020810190506115e2565b60008484015250505050565b6000611614826115c3565b61161e81856115ce565b935061162e8185602086016115df565b6116378161121c565b840191505092915050565b600073ffffffffffffffffffffffffffffffffffffffff82169050919050565b600061166d82611642565b9050919050565b61167d81611662565b82525050565b600061010082019050611699600083018b611439565b81810360208301526116ab818a611609565b905081810360408301526116bf8189611609565b90506116ce6060830188611674565b81810360808301526116e08187611609565b905081810360a08301526116f48186611609565b905081810360c08301526117088185611609565b905081810360e083015261171c8184611609565b90509998505050505050505050565b600060e082019050611740600083018a611439565b81810360208301526117528189611609565b905081810360408301526117668188611609565b90506117756060830187611674565b81810360808301526117878186611609565b905081810360a083015261179b8185611609565b905081810360c08301526117af8184611609565b905098975050505050505050565b7f4e487b7100000000000000000000000000000000000000000000000000000000600052601160045260246000fd5b60006117f78261142f565b91507fffffffffffffffffffffffffffffffffffffffffffffffffffffffffffffffff8203611829576118286117bd565b5b600182019050919050565b7f4e487b7100000000000000000000000000000000000000000000000000000000600052602260045260246000fd5b6000600282049050600182168061187b57607f821691505b60208210810361188e5761188d611834565b5b50919050565b60008190508160005260206000209050919050565b60006020601f8301049050919050565b600082821b905092915050565b6000600883026118f67fffffffffffffffffffffffffffffffffffffffffffffffffffffffffffffffff826118b9565b61190086836118b9565b95508019841693508086168417925050509392505050565b6000819050919050565b600061193d6119386119338461142f565b611918565b61142f565b9050919050565b6000819050919050565b61195783611922565b61196b61196382611944565b8484546118c6565b825550505050565b600090565b611980611973565b61198b81848461194e565b505050565b5b818110156119af576119a4600082611978565b600181019050611991565b5050565b601f8211156119f4576119c581611894565b6119ce846118a9565b810160208510156119dd578190505b6119f16119e9856118a9565b830182611990565b50505b505050565b600082821c905092915050565b6000611a17600019846008026119f9565b1980831691505092915050565b6000611a308383611a06565b9150826002028217905092915050565b611a49826115c3565b67ffffffffffffffff811115611a6257611a6161122d565b5b611a6c8254611863565b611a778282856119b3565b600060209050601f831160018114611aaa5760008415611a98578287015190505b611aa28582611a24565b865550611b0a565b601f198416611ab886611894565b60005b82811015611ae057848901518255600182019150602085019450602081019050611abb565b86831015611afd5784890151611af9601f891682611a06565b8355505b6001600288020188555050505b505050505050565b7f536f6369616c204173736573736d656e74000000000000000000000000000000600082015250565b6000611b486011836115ce565b9150611b5382611b12565b602082019050919050565b600060e082019050611b736000830189611439565b8181036020830152611b8481611b3b565b90508181036040830152611b988188611609565b9050611ba76060830187611674565b8181036080830152611bb98186611609565b905081810360a0830152611bcd8185611609565b905081810360c0830152611be18184611609565b9050979650505050505050565b7f4c696665204379636c6520496e76656e746f7279000000000000000000000000600082015250565b6000611c246014836115ce565b9150611c2f82611bee565b602082019050919050565b600061010082019050611c50600083018a611439565b8181036020830152611c6181611c17565b90508181036040830152611c758189611609565b9050611c846060830188611674565b8181036080830152611c968187611609565b905081810360a0830152611caa8186611609565b905081810360c0830152611cbe8185611609565b905081810360e0830152611cd28184611609565b905098975050505050505050565b7f456e7669726f6e6d656e74616c204173736573736d656e740000000000000000600082015250565b6000611d166018836115ce565b9150611d2182611ce0565b602082019050919050565b600060e082019050611d416000830189611439565b8181036020830152611d5281611d09565b90508181036040830152611d668188611609565b9050611d756060830187611674565b8181036080830152611d878186611609565b905081810360a0830152611d9b8185611609565b905081810360c0830152611daf8184611609565b905097965050505050505056fea26469706673582212206c429a09af84fe67d5458e7d7bbfa4f4fe315b4326ed8b6fc789318415fe6e0464736f6c63430008130033",
  "immutableReferences": {},
  "source": "// SPDX-License-Identifier: MIT \npragma solidity >=0.4.22 <0.9.0;\n\ncontract Assessments {\n    \n    uint public LCICount = 0; \n    uint public enviroCount = 0; \n    uint public socialCount = 0; \n    uint public assessmentCount = 0; \n\n    mapping (uint => LCI) public LCIs;\n    mapping (uint => Enviro) public enviros;\n    mapping (uint => Social) public socials;\n\n    struct LCI {\n        uint id;\n        string assessType;\n        string date;\n        address account;\n        string document;\n        string month;\n        string year;\n        string process;\n    }\n\n    event LCIAdded(\n        uint id,\n        string assessType,\n        string date,\n        address account,\n        string document,\n        string month,\n        string year,\n        string process\n    );\n\n    struct Enviro {\n        uint id;\n        string assessType;\n        string date;\n        address account;\n        string document;\n        string month;\n        string year;\n    }\n\n    event EnviroAdded(\n        uint id,\n        string assessType,\n        string date,\n        address account,\n        string document,\n        string month,\n        string year\n    );\n\n    struct Social {\n        uint id;\n        string assessType;\n        string date;\n        address account;\n        string document;\n        string month;\n        string year;\n    }\n\n    event SocialAdded(\n        uint id,\n        string assessType,\n        string date,\n        address account,\n        string document,\n        string month,\n        string year\n    );\n\n    function addLCI(\n        string memory _date, \n        string memory _document,\n        string memory _month,\n        string memory _year,\n        string memory _process\n    ) public {\n        require(bytes(_date).length != 0);\n        require(bytes(_document).length != 0);\n        require(bytes(_process).length != 0);\n        LCICount++;\n        assessmentCount++;\n        LCIs[LCICount] = LCI(\n            LCICount,\n            \"Life Cycle Inventory\",\n            _date,\n            msg.sender,\n            _document,\n            _month,\n            _year,\n            _process);\n        emit LCIAdded(\n            LCICount,\n            \"Life Cycle Inventory\",\n            _date,\n            msg.sender,\n            _document,\n            _month,\n            _year,\n            _process);\n    }\n    function addEnviro(\n        string memory _date, \n        string memory _document,\n        string memory _month,\n        string memory _year\n    ) public {\n        require(bytes(_date).length != 0);\n        require(bytes(_document).length != 0);\n        require(bytes(_month).length != 0);\n        require(bytes(_year).length != 0);\n        enviroCount++;\n        assessmentCount++;\n        enviros[enviroCount] = Enviro(\n            enviroCount,\n            \"Environmental Assessment\",\n            _date,\n            msg.sender,\n            _document,\n            _month,\n            _year);\n        emit EnviroAdded(\n            enviroCount,\n            \"Environmental Assessment\",\n            _date,\n            msg.sender,\n            _document,\n            _month,\n            _year);\n    }\n    function addSocial(\n        string memory _date, \n        string memory _document,\n        string memory _month,\n        string memory _year\n    ) public {\n        require(bytes(_date).length != 0);\n        require(bytes(_document).length != 0);\n        require(bytes(_month).length != 0);\n        require(bytes(_year).length != 0);\n        socialCount++;\n        assessmentCount++;\n        socials[socialCount] = Social(\n            socialCount,\n            \"Social Assessment\",\n            _date,\n            msg.sender,\n            _document,\n            _month,\n            _year);\n        emit SocialAdded(\n            socialCount,\n            \"Social Assessment\",\n            _date,\n            msg.sender,\n            _document,\n            _month,\n            _year);\n    }\n}",
  "sourcePath": "/Users/tt/Documents/Workspace/Subject/dscm/contracts/Assessments.sol",
  "compiler": {
    "name": "solc",
    "version": "0.8.19+commit.7dd6d404.Emscripten.clang"
  },
  "schemaVersion": "3.4.16",
  "updatedAt": "2024-12-03T04:11:03.269Z",
  "networkType": "ethereum",
  "devdoc": {
    "kind": "dev",
    "methods": {},
    "version": 1
  },
  "userdoc": {
    "kind": "user",
    "methods": {},
    "version": 1
  }
}