{
  "contractName": "Origin",
  "abi": [
    {
      "inputs": [],
      "stateMutability": "nonpayable",
      "type": "constructor"
    },
    {
      "anonymous": false,
      "inputs": [
        {
          "indexed": false,
          "internalType": "uint256",
          "name": "id",
          "type": "uint256"
        },
        {
          "indexed": false,
          "internalType": "string",
          "name": "name",
          "type": "string"
        },
        {
          "indexed": false,
          "internalType": "string",
          "name": "quantity",
          "type": "string"
        },
        {
          "indexed": false,
          "internalType": "string",
          "name": "unit",
          "type": "string"
        },
        {
          "indexed": false,
          "internalType": "string",
          "name": "date",
          "type": "string"
        },
        {
          "indexed": false,
          "internalType": "address",
          "name": "account",
          "type": "address"
        }
      ],
      "name": "OrderAdded",
      "type": "event"
    },
    {
      "anonymous": false,
      "inputs": [
        {
          "indexed": false,
          "internalType": "uint256",
          "name": "id",
          "type": "uint256"
        },
        {
          "indexed": false,
          "internalType": "string",
          "name": "name",
          "type": "string"
        },
        {
          "indexed": false,
          "internalType": "string",
          "name": "image",
          "type": "string"
        },
        {
          "indexed": false,
          "internalType": "string",
          "name": "process",
          "type": "string"
        },
        {
          "indexed": false,
          "internalType": "string",
          "name": "date",
          "type": "string"
        },
        {
          "indexed": false,
          "internalType": "address",
          "name": "account",
          "type": "address"
        }
      ],
      "name": "ProductAdded",
      "type": "event"
    },
    {
      "anonymous": false,
      "inputs": [
        {
          "indexed": false,
          "internalType": "uint256",
          "name": "id",
          "type": "uint256"
        },
        {
          "indexed": false,
          "internalType": "string",
          "name": "shipType",
          "type": "string"
        },
        {
          "indexed": false,
          "internalType": "string",
          "name": "place",
          "type": "string"
        },
        {
          "indexed": false,
          "internalType": "string",
          "name": "latlong",
          "type": "string"
        },
        {
          "indexed": false,
          "internalType": "string",
          "name": "date",
          "type": "string"
        },
        {
          "indexed": false,
          "internalType": "address",
          "name": "account",
          "type": "address"
        },
        {
          "indexed": false,
          "internalType": "string",
          "name": "product",
          "type": "string"
        },
        {
          "indexed": false,
          "internalType": "string",
          "name": "process",
          "type": "string"
        }
      ],
      "name": "ShipmentAdded",
      "type": "event"
    },
    {
      "inputs": [],
      "name": "orderCount",
      "outputs": [
        {
          "internalType": "uint256",
          "name": "",
          "type": "uint256"
        }
      ],
      "stateMutability": "view",
      "type": "function",
      "constant": true
    },
    {
      "inputs": [
        {
          "internalType": "uint256",
          "name": "",
          "type": "uint256"
        }
      ],
      "name": "orders",
      "outputs": [
        {
          "internalType": "uint256",
          "name": "id",
          "type": "uint256"
        },
        {
          "internalType": "string",
          "name": "name",
          "type": "string"
        },
        {
          "internalType": "string",
          "name": "quantity",
          "type": "string"
        },
        {
          "internalType": "string",
          "name": "unit",
          "type": "string"
        },
        {
          "internalType": "string",
          "name": "date",
          "type": "string"
        },
        {
          "internalType": "address",
          "name": "account",
          "type": "address"
        }
      ],
      "stateMutability": "view",
      "type": "function",
      "constant": true
    },
    {
      "inputs": [],
      "name": "productCount",
      "outputs": [
        {
          "internalType": "uint256",
          "name": "",
          "type": "uint256"
        }
      ],
      "stateMutability": "view",
      "type": "function",
      "constant": true
    },
    {
      "inputs": [
        {
          "internalType": "uint256",
          "name": "",
          "type": "uint256"
        }
      ],
      "name": "products",
      "outputs": [
        {
          "internalType": "uint256",
          "name": "id",
          "type": "uint256"
        },
        {
          "internalType": "string",
          "name": "name",
          "type": "string"
        },
        {
          "internalType": "string",
          "name": "image",
          "type": "string"
        },
        {
          "internalType": "string",
          "name": "process",
          "type": "string"
        },
        {
          "internalType": "string",
          "name": "date",
          "type": "string"
        },
        {
          "internalType": "address",
          "name": "account",
          "type": "address"
        }
      ],
      "stateMutability": "view",
      "type": "function",
      "constant": true
    },
    {
      "inputs": [],
      "name": "shipmentCount",
      "outputs": [
        {
          "internalType": "uint256",
          "name": "",
          "type": "uint256"
        }
      ],
      "stateMutability": "view",
      "type": "function",
      "constant": true
    },
    {
      "inputs": [
        {
          "internalType": "uint256",
          "name": "",
          "type": "uint256"
        }
      ],
      "name": "shipments",
      "outputs": [
        {
          "internalType": "uint256",
          "name": "id",
          "type": "uint256"
        },
        {
          "internalType": "string",
          "name": "shipType",
          "type": "string"
        },
        {
          "internalType": "string",
          "name": "place",
          "type": "string"
        },
        {
          "internalType": "string",
          "name": "latlong",
          "type": "string"
        },
        {
          "internalType": "string",
          "name": "date",
          "type": "string"
        },
        {
          "internalType": "address",
          "name": "account",
          "type": "address"
        },
        {
          "internalType": "string",
          "name": "product",
          "type": "string"
        },
        {
          "internalType": "string",
          "name": "process",
          "type": "string"
        }
      ],
      "stateMutability": "view",
      "type": "function",
      "constant": true
    },
    {
      "inputs": [
        {
          "internalType": "string",
          "name": "_name",
          "type": "string"
        },
        {
          "internalType": "string",
          "name": "_image",
          "type": "string"
        },
        {
          "internalType": "string",
          "name": "_process",
          "type": "string"
        },
        {
          "internalType": "string",
          "name": "_date",
          "type": "string"
        }
      ],
      "name": "addProduct",
      "outputs": [],
      "stateMutability": "nonpayable",
      "type": "function"
    },
    {
      "inputs": [
        {
          "internalType": "string",
          "name": "_name",
          "type": "string"
        },
        {
          "internalType": "string",
          "name": "_quantity",
          "type": "string"
        },
        {
          "internalType": "string",
          "name": "_unit",
          "type": "string"
        },
        {
          "internalType": "string",
          "name": "_date",
          "type": "string"
        }
      ],
      "name": "addOrder",
      "outputs": [],
      "stateMutability": "nonpayable",
      "type": "function"
    },
    {
      "inputs": [
        {
          "internalType": "string",
          "name": "_shipType",
          "type": "string"
        },
        {
          "internalType": "string",
          "name": "_place",
          "type": "string"
        },
        {
          "internalType": "string",
          "name": "_latlong",
          "type": "string"
        },
        {
          "internalType": "string",
          "name": "_date",
          "type": "string"
        },
        {
          "internalType": "string",
          "name": "_product",
          "type": "string"
        },
        {
          "internalType": "string",
          "name": "_process",
          "type": "string"
        }
      ],
      "name": "addShipment",
      "outputs": [],
      "stateMutability": "nonpayable",
      "type": "function"
    }
  ],
  "bytecode": "0x6080604052600080556000600155600060025573f58b6b550dda0d5aebb4d8323804c0889435fd77600360006101000a81548173ffffffffffffffffffffffffffffffffffffffff021916908373ffffffffffffffffffffffffffffffffffffffff16021790555034801561007357600080fd5b506119c8806100836000396000f3fe608060405234801561001057600080fd5b50600436106100935760003560e01c8063a85c38ef11610066578063a85c38ef1461013e578063aace20b714610173578063b90c278114610191578063e0f6ef87146101ad578063fde74e81146101cb57610093565b80632453ffa8146100985780632ac08a93146100b657806334218473146100ed5780637acc0b2014610109575b600080fd5b6100a06101e7565b6040516100ad919061107e565b60405180910390f35b6100d060048036038101906100cb91906110d9565b6101ed565b6040516100e49897969594939291906111d7565b60405180910390f35b610107600480360381019061010291906113b4565b610585565b005b610123600480360381019061011e91906110d9565b610771565b604051610135969594939291906114e9565b60405180910390f35b610158600480360381019061015391906110d9565b6109ed565b60405161016a969594939291906114e9565b60405180910390f35b61017b610c69565b604051610188919061107e565b60405180910390f35b6101ab60048036038101906101a69190611566565b610c6f565b005b6101b5610e68565b6040516101c2919061107e565b60405180910390f35b6101e560048036038101906101e09190611566565b610e6e565b005b60015481565b60066020528060005260406000206000915090508060000154908060010180546102169061166c565b80601f01602080910402602001604051908101604052809291908181526020018280546102429061166c565b801561028f5780601f106102645761010080835404028352916020019161028f565b820191906000526020600020905b81548152906001019060200180831161027257829003601f168201915b5050505050908060020180546102a49061166c565b80601f01602080910402602001604051908101604052809291908181526020018280546102d09061166c565b801561031d5780601f106102f25761010080835404028352916020019161031d565b820191906000526020600020905b81548152906001019060200180831161030057829003601f168201915b5050505050908060030180546103329061166c565b80601f016020809104026020016040519081016040528092919081815260200182805461035e9061166c565b80156103ab5780601f10610380576101008083540402835291602001916103ab565b820191906000526020600020905b81548152906001019060200180831161038e57829003601f168201915b5050505050908060040180546103c09061166c565b80601f01602080910402602001604051908101604052809291908181526020018280546103ec9061166c565b80156104395780601f1061040e57610100808354040283529160200191610439565b820191906000526020600020905b81548152906001019060200180831161041c57829003601f168201915b5050505050908060050160009054906101000a900473ffffffffffffffffffffffffffffffffffffffff16908060060180546104749061166c565b80601f01602080910402602001604051908101604052809291908181526020018280546104a09061166c565b80156104ed5780601f106104c2576101008083540402835291602001916104ed565b820191906000526020600020905b8154815290600101906020018083116104d057829003601f168201915b5050505050908060070180546105029061166c565b80601f016020809104026020016040519081016040528092919081815260200182805461052e9061166c565b801561057b5780601f106105505761010080835404028352916020019161057b565b820191906000526020600020905b81548152906001019060200180831161055e57829003601f168201915b5050505050905088565b600086510361059357600080fd5b60008451036105a157600080fd5b60008351036105af57600080fd5b60008251036105bd57600080fd5b60008151036105cb57600080fd5b600260008154809291906105de906116cc565b919050555060405180610100016040528060025481526020018781526020018681526020018581526020018481526020013373ffffffffffffffffffffffffffffffffffffffff1681526020018381526020018281525060066000600254815260200190815260200160002060008201518160000155602082015181600101908161066991906118c0565b50604082015181600201908161067f91906118c0565b50606082015181600301908161069591906118c0565b5060808201518160040190816106ab91906118c0565b5060a08201518160050160006101000a81548173ffffffffffffffffffffffffffffffffffffffff021916908373ffffffffffffffffffffffffffffffffffffffff16021790555060c082015181600601908161070891906118c0565b5060e082015181600701908161071e91906118c0565b509050507ff0fa217645b3418615d4ce81d2a6a30923ba2f32d731012c1e7a4ac535da78e7600254878787873388886040516107619897969594939291906111d7565b60405180910390a1505050505050565b600460205280600052604060002060009150905080600001549080600101805461079a9061166c565b80601f01602080910402602001604051908101604052809291908181526020018280546107c69061166c565b80156108135780601f106107e857610100808354040283529160200191610813565b820191906000526020600020905b8154815290600101906020018083116107f657829003601f168201915b5050505050908060020180546108289061166c565b80601f01602080910402602001604051908101604052809291908181526020018280546108549061166c565b80156108a15780601f10610876576101008083540402835291602001916108a1565b820191906000526020600020905b81548152906001019060200180831161088457829003601f168201915b5050505050908060030180546108b69061166c565b80601f01602080910402602001604051908101604052809291908181526020018280546108e29061166c565b801561092f5780601f106109045761010080835404028352916020019161092f565b820191906000526020600020905b81548152906001019060200180831161091257829003601f168201915b5050505050908060040180546109449061166c565b80601f01602080910402602001604051908101604052809291908181526020018280546109709061166c565b80156109bd5780601f10610992576101008083540402835291602001916109bd565b820191906000526020600020905b8154815290600101906020018083116109a057829003601f168201915b5050505050908060050160009054906101000a900473ffffffffffffffffffffffffffffffffffffffff16905086565b6005602052806000526040600020600091509050806000015490806001018054610a169061166c565b80601f0160208091040260200160405190810160405280929190818152602001828054610a429061166c565b8015610a8f5780601f10610a6457610100808354040283529160200191610a8f565b820191906000526020600020905b815481529060010190602001808311610a7257829003601f168201915b505050505090806002018054610aa49061166c565b80601f0160208091040260200160405190810160405280929190818152602001828054610ad09061166c565b8015610b1d5780601f10610af257610100808354040283529160200191610b1d565b820191906000526020600020905b815481529060010190602001808311610b0057829003601f168201915b505050505090806003018054610b329061166c565b80601f0160208091040260200160405190810160405280929190818152602001828054610b5e9061166c565b8015610bab5780601f10610b8057610100808354040283529160200191610bab565b820191906000526020600020905b815481529060010190602001808311610b8e57829003601f168201915b505050505090806004018054610bc09061166c565b80601f0160208091040260200160405190810160405280929190818152602001828054610bec9061166c565b8015610c395780601f10610c0e57610100808354040283529160200191610c39565b820191906000526020600020905b815481529060010190602001808311610c1c57829003601f168201915b5050505050908060050160009054906101000a900473ffffffffffffffffffffffffffffffffffffffff16905086565b60025481565b600360009054906101000a900473ffffffffffffffffffffffffffffffffffffffff1673ffffffffffffffffffffffffffffffffffffffff163373ffffffffffffffffffffffffffffffffffffffff1614610cc957600080fd5b6000845103610cd757600080fd5b6000835103610ce557600080fd5b6000825103610cf357600080fd5b6000815103610d0157600080fd5b60016000815480929190610d14906116cc565b91905055506040518060c0016040528060015481526020018581526020018481526020018381526020018281526020013373ffffffffffffffffffffffffffffffffffffffff16815250600560006001548152602001908152602001600020600082015181600001556020820151816001019081610d9291906118c0565b506040820151816002019081610da891906118c0565b506060820151816003019081610dbe91906118c0565b506080820151816004019081610dd491906118c0565b5060a08201518160050160006101000a81548173ffffffffffffffffffffffffffffffffffffffff021916908373ffffffffffffffffffffffffffffffffffffffff1602179055509050507f8c5d0faaeb77d9eccf748ec43df65caf6bb655a39ec2c4e07985014f0c4e8f376001548585858533604051610e5a969594939291906114e9565b60405180910390a150505050565b60005481565b600360009054906101000a900473ffffffffffffffffffffffffffffffffffffffff1673ffffffffffffffffffffffffffffffffffffffff163373ffffffffffffffffffffffffffffffffffffffff1614610ec857600080fd5b6000845103610ed657600080fd5b6000835103610ee457600080fd5b6000825103610ef257600080fd5b6000815103610f0057600080fd5b600080815480929190610f12906116cc565b91905055506040518060c0016040528060005481526020018581526020018481526020018381526020018281526020013373ffffffffffffffffffffffffffffffffffffffff168152506004600080548152602001908152602001600020600082015181600001556020820151816001019081610f8f91906118c0565b506040820151816002019081610fa591906118c0565b506060820151816003019081610fbb91906118c0565b506080820151816004019081610fd191906118c0565b5060a08201518160050160006101000a81548173ffffffffffffffffffffffffffffffffffffffff021916908373ffffffffffffffffffffffffffffffffffffffff1602179055509050507fb04cc8e999bdc869160fde48064136d011f19755d97437ac23d3abfa35aafa986000548585858533604051611057969594939291906114e9565b60405180910390a150505050565b6000819050919050565b61107881611065565b82525050565b6000602082019050611093600083018461106f565b92915050565b6000604051905090565b600080fd5b600080fd5b6110b681611065565b81146110c157600080fd5b50565b6000813590506110d3816110ad565b92915050565b6000602082840312156110ef576110ee6110a3565b5b60006110fd848285016110c4565b91505092915050565b600081519050919050565b600082825260208201905092915050565b60005b83811015611140578082015181840152602081019050611125565b60008484015250505050565b6000601f19601f8301169050919050565b600061116882611106565b6111728185611111565b9350611182818560208601611122565b61118b8161114c565b840191505092915050565b600073ffffffffffffffffffffffffffffffffffffffff82169050919050565b60006111c182611196565b9050919050565b6111d1816111b6565b82525050565b6000610100820190506111ed600083018b61106f565b81810360208301526111ff818a61115d565b90508181036040830152611213818961115d565b90508181036060830152611227818861115d565b9050818103608083015261123b818761115d565b905061124a60a08301866111c8565b81810360c083015261125c818561115d565b905081810360e0830152611270818461115d565b90509998505050505050505050565b600080fd5b600080fd5b7f4e487b7100000000000000000000000000000000000000000000000000000000600052604160045260246000fd5b6112c18261114c565b810181811067ffffffffffffffff821117156112e0576112df611289565b5b80604052505050565b60006112f3611099565b90506112ff82826112b8565b919050565b600067ffffffffffffffff82111561131f5761131e611289565b5b6113288261114c565b9050602081019050919050565b82818337600083830152505050565b600061135761135284611304565b6112e9565b90508281526020810184848401111561137357611372611284565b5b61137e848285611335565b509392505050565b600082601f83011261139b5761139a61127f565b5b81356113ab848260208601611344565b91505092915050565b60008060008060008060c087890312156113d1576113d06110a3565b5b600087013567ffffffffffffffff8111156113ef576113ee6110a8565b5b6113fb89828a01611386565b965050602087013567ffffffffffffffff81111561141c5761141b6110a8565b5b61142889828a01611386565b955050604087013567ffffffffffffffff811115611449576114486110a8565b5b61145589828a01611386565b945050606087013567ffffffffffffffff811115611476576114756110a8565b5b61148289828a01611386565b935050608087013567ffffffffffffffff8111156114a3576114a26110a8565b5b6114af89828a01611386565b92505060a087013567ffffffffffffffff8111156114d0576114cf6110a8565b5b6114dc89828a01611386565b9150509295509295509295565b600060c0820190506114fe600083018961106f565b8181036020830152611510818861115d565b90508181036040830152611524818761115d565b90508181036060830152611538818661115d565b9050818103608083015261154c818561115d565b905061155b60a08301846111c8565b979650505050505050565b600080600080608085870312156115805761157f6110a3565b5b600085013567ffffffffffffffff81111561159e5761159d6110a8565b5b6115aa87828801611386565b945050602085013567ffffffffffffffff8111156115cb576115ca6110a8565b5b6115d787828801611386565b935050604085013567ffffffffffffffff8111156115f8576115f76110a8565b5b61160487828801611386565b925050606085013567ffffffffffffffff811115611625576116246110a8565b5b61163187828801611386565b91505092959194509250565b7f4e487b7100000000000000000000000000000000000000000000000000000000600052602260045260246000fd5b6000600282049050600182168061168457607f821691505b6020821081036116975761169661163d565b5b50919050565b7f4e487b7100000000000000000000000000000000000000000000000000000000600052601160045260246000fd5b60006116d782611065565b91507fffffffffffffffffffffffffffffffffffffffffffffffffffffffffffffffff82036117095761170861169d565b5b600182019050919050565b60008190508160005260206000209050919050565b60006020601f8301049050919050565b600082821b905092915050565b6000600883026117767fffffffffffffffffffffffffffffffffffffffffffffffffffffffffffffffff82611739565b6117808683611739565b95508019841693508086168417925050509392505050565b6000819050919050565b60006117bd6117b86117b384611065565b611798565b611065565b9050919050565b6000819050919050565b6117d7836117a2565b6117eb6117e3826117c4565b848454611746565b825550505050565b600090565b6118006117f3565b61180b8184846117ce565b505050565b5b8181101561182f576118246000826117f8565b600181019050611811565b5050565b601f8211156118745761184581611714565b61184e84611729565b8101602085101561185d578190505b61187161186985611729565b830182611810565b50505b505050565b600082821c905092915050565b600061189760001984600802611879565b1980831691505092915050565b60006118b08383611886565b9150826002028217905092915050565b6118c982611106565b67ffffffffffffffff8111156118e2576118e1611289565b5b6118ec825461166c565b6118f7828285611833565b600060209050601f83116001811461192a5760008415611918578287015190505b61192285826118a4565b86555061198a565b601f19841661193886611714565b60005b828110156119605784890151825560018201915060208501945060208101905061193b565b8683101561197d5784890151611979601f891682611886565b8355505b6001600288020188555050505b50505050505056fea264697066735822122081f96de2edcd044116cd7fcc90846f2a22a2d7f0a22d0cfe5cb6bb4ab7b2961464736f6c63430008130033",
  "immutableReferences": {},
  "source": "pragma solidity >=0.4.22 <0.9.0;\n\ncontract Origin {\n\n    uint public productCount = 0;\n    uint public orderCount = 0;\n    uint public shipmentCount = 0;\n    // address owner = 0x3421668462324bFB48EA07D0B12243091CD09759;\n    address owner = 0xF58b6b550DdA0D5AEBB4D8323804C0889435fD77;\n\n    mapping (uint => Product) public products; \n    mapping (uint => Order) public orders; \n    mapping (uint => Shipment) public shipments; \n\n    constructor() public {\n    }\n    \n    modifier onlyOwner() {\n      require(msg.sender == owner);\n      _;\n    }\n\n    struct Product {\n        uint id;\n        string name;\n        string image;\n        string process;\n        string date;\n        address account;\n    }\n\n    event ProductAdded(\n        uint id,\n        string name,\n        string image,\n        string process,\n        string date,\n        address account\n    );\n   \n    function addProduct(string memory _name, string memory _image, string memory _process, string memory _date) public onlyOwner {\n        require(bytes(_name).length != 0);\n        require(bytes(_image).length != 0);\n        require(bytes(_process).length != 0);\n        require(bytes(_date).length != 0);\n        productCount++;\n        products[productCount] = Product(productCount, _name,_image, _process, _date, msg.sender);\n        emit ProductAdded(productCount, _name, _image, _process, _date, msg.sender);\n    }\n\n    struct Order {\n        uint id;\n        string name;\n        string quantity;\n        string unit;\n        string date;\n        address account;\n    }\n\n    event OrderAdded(\n        uint id,\n        string name,\n        string quantity,\n        string unit,\n        string date,\n        address account\n    );\n   \n    function addOrder(string memory _name, string memory _quantity, string memory _unit, string memory _date) public onlyOwner {\n        require(bytes(_name).length != 0);\n        require(bytes(_quantity).length != 0);\n        require(bytes(_unit).length != 0);\n        require(bytes(_date).length != 0);\n        orderCount++;\n        orders[orderCount] = Order(orderCount, _name, _quantity, _unit, _date, msg.sender);\n        emit OrderAdded(orderCount, _name, _quantity, _unit, _date, msg.sender);\n    }   \n\n    struct Shipment {\n        uint id;\n        string shipType;\n        string place;\n        string latlong;\n        string date;\n        address account;\n        string product;\n        string process;\n    }\n\n    event ShipmentAdded(\n        uint id,\n        string shipType,\n        string place,\n        string latlong,\n        string date,\n        address account,\n        string product,\n        string process\n    );\n   \n    function addShipment(string memory _shipType, string memory _place,  string memory _latlong, \n    string memory _date, string memory _product, string memory _process) public {\n        require(bytes(_shipType).length != 0);\n        require(bytes(_latlong).length != 0);\n        require(bytes(_date).length != 0);\n        require(bytes(_product).length != 0);\n        require(bytes(_process).length != 0);\n        shipmentCount++;\n        shipments[shipmentCount] = Shipment(shipmentCount, _shipType, _place, _latlong, _date, msg.sender, _product, _process);\n        emit ShipmentAdded(shipmentCount, _shipType, _place, _latlong, _date, msg.sender, _product, _process);\n    } \n    \n}",
  "sourcePath": "/Users/tt/Documents/Workspace/Subject/dscm/contracts/Origin.sol",
  "compiler": {
    "name": "solc",
    "version": "0.8.19+commit.7dd6d404.Emscripten.clang"
  },
  "schemaVersion": "3.4.16",
  "updatedAt": "2024-12-03T04:11:02.946Z",
  "networkType": "ethereum",
  "devdoc": {
    "kind": "dev",
    "methods": {},
    "version": 1
  },
  "userdoc": {
    "kind": "user",
    "methods": {},
    "version": 1
  }
}